:020000040800F2
:100000000028002095130008251300082B13000872
:1000100031130008371300083D13000800000000EA
:100020000000000000000000000000004313000872
:100030004F130008000000005B130008671300085E
:10004000DD130008DD130008DD130008DD130008D0
:10005000DD130008DD130008DD130008DD130008C0
:10006000DD130008DD130008DD130008DD130008B0
:10007000DD130008DD130008DD130008DD130008A0
:10008000DD130008DD130008DD130008DD13000890
:10009000DD130008DD130008DD130008DD13000880
:1000A000DD130008DD130008DD130008DD13000870
:1000B00075130008DD13000800000000DD130008C0
:1000C000DD1300080000000000000000DD13000840
:1000D00000000000DD130008DD1300080000000030
:1000E000DD130008DD130008DD1300080000000028
:1000F0000000000000000000000000000000000000
:0C01000000000000000000005FF808F1A3
:10010C0010B5054C237833B9044B13B10448AFF345
:10011C0000800123237010BD54000020000000005B
:10012C000C2A000808B5034B1BB103490348AFF375
:10013C00008008BD00000000580000200C2A0008B8
:10014C0080B483B000AF7860094A7B6852F82330E2
:10015C00012B06D1064A7B68002142F823100123AB
:10016C0000E0002318460C37BD4680BC704700BF2A
:10017C009000002080B582B000AF00237B6090E03F
:10018C004C4A7B6852F823204B497B6841F823206A
:10019C004A4A7B6852F8232046497B6841F8232061
:1001AC007B68022B1BD07B68022B21DC7B68002B2D
:1001BC0003D07B68012B09D01AE04FF40051404862
:1001CC0001F0F2FB03461A463C4B1A604FF4804197
:1001DC003C4801F0E9FB03461A46384B5A604FF491
:1001EC000041384801F0E0FB03461A46334B9A6055
:1001FC00314A7B6852F823202E497B6851F8233012
:10020C009A424BD12B4A7B6852F823202B497B68AE
:10021C0051F823309A4241D12B4A7B6852F8232063
:10022C0026497B6851F823309A4218D0234A7B68C0
:10023C0052F8232024497B6841F823201F4A7B680D
:10024C0052F82330002B29D1204A7B68642142F8D4
:10025C0023101F4A7B68012142F823101EE01B4A21
:10026C007B6852F823305A1E18497B6841F82320CA
:10027C00164A7B6852F82330002B0FD10F4A7B684B
:10028C0052F82330002B04D1114A7B68012142F82B
:10029C0023100E4A7B68192142F823107B68013326
:1002AC007B607B68022B7FF76BAF00BF00BF08370A
:1002BC00BD4680BD0C00002000000020180000206E
:1002CC0000100140000C01402400002030000020F0
:1002DC009000002080B582B000AF78607B68092B5D
:1002EC007FD801A252F823F01D0300083303000845
:1002FC00490300085F030008750300088B0300081E
:10030C00A1030008B7030008CD030008D9030008B7
:10031C0000223F21354801F05EFB01224021334889
:10032C0001F059FB5DE000220621304801F053FB3F
:10033C00012279212D4801F04EFB52E000225B2175
:10034C002A4801F048FB01222421284801F043FBF4
:10035C0047E000224F21254801F03DFB01223021CE
:10036C00224801F038FB3CE0002266211F4801F0D6
:10037C0032FB012219211D4801F02DFB31E0002236
:10038C006D211A4801F027FB01221221174801F0B8
:10039C0022FB26E000227D21144801F01CFB0122E7
:1003AC000221124801F017FB1BE0002207210F4825
:1003BC0001F011FB012278210C4801F00CFB10E03C
:1003CC0000227F21094801F006FB0AE000226F2180
:1003DC00064801F000FB01221021044801F0FBFA51
:1003EC0000BF00BF0837BD4680BD00BF000C0140F8
:1003FC0080B582B000AF78607B68092B00F29480E6
:10040C0001A252F823F000BF3D0400085704000875
:10041C00710400088B040008A5040008BF04000840
:10042C00D9040008F30400080D0500081B0500089A
:10043C0000224FF4FC513E4801F0CDFA01224FF45A
:10044C0000513B4801F0C7FA6EE000224FF44071B6
:10045C00374801F0C0FA01224FF47251344801F0D0
:10046C00BAFA61E000224FF43651314801F0B3FA88
:10047C0001224FF490512E4801F0ADFA54E00022C5
:10048C004FF41E512A4801F0A6FA01224FF4C05134
:10049C00274801F0A0FA47E000224FF44C512448C1
:1004AC0001F099FA01224FF44861214801F093FAC6
:1004BC003AE000224FF45A511D4801F08CFA012207
:1004CC004FF410611A4801F086FA2DE000224FF427
:1004DC007A51174801F07FFA01224FF480711448C9
:1004EC0001F079FA20E000224FF46071104801F01D
:1004FC0072FA01224FF470510D4801F06CFA13E0BE
:10050C0000224FF47E510A4801F065FA0CE00022FB
:10051C004FF45E51064801F05EFA01224FF400617F
:10052C00034801F058FA00BF00BF0837BD4680BD34
:10053C00000C014080B582B000AF78607B68002B66
:10054C0003D07B68012B17D02DE001224FF40071F2
:10055C00174801F040FA00224FF48071144801F062
:10056C003AFA144B1B681846FFF7B4FE114B9B6804
:10057C001846FFF73DFF16E001224FF480710C483E
:10058C0001F029FA00224FF40071094801F023FA16
:10059C00084B5B681846FFF79DFE064BDB68184658
:1005AC00FFF726FF00BF00BF0837BD4680BD00BF68
:1005BC0000080140E000002080B400AF204B1B6815
:1005CC00204A82FB03129211DB17D31A1E4A1360C6
:1005DC001B4B1B681D4A82FB03125211DB17D11AED
:1005EC001B4B83FB01239A10CB17D21A13469B008B
:1005FC0013445B00CA1A144B5A60164B1B68114A01
:10060C0082FB03129211DB17D31A0F4A9360114B22
:10061C001B680E4A82FB03125211DB17D11A0C4BCA
:10062C0083FB01239A10CB17D21A13469B00134459
:10063C005B00CA1A044BDA6000BFBD4680BC704731
:10064C0084000020D34D6210E00000201F85EB5188
:10065C00676666668800002080B500AF01224FF601
:10066C00FF71054801F0B7F901224FF6FF710348FD
:10067C0001F0B1F900BF80BD00080140000C014041
:10068C0080B500AFAE4B1B68013B072B00F26882B4
:10069C0001A252F823F000BFC5060008D9060008D5
:1006AC007F07000813080008B90800087109000842
:1006BC000D0A0008A90A0008A14B02221A60A14BDE
:1006CC001B681946002000F067FD58E29E4B1A6823
:1006DC009E4B1B689E4981FB03018910DB17CB1ACB
:1006EC0013449C4A1360984B1B689B4A136001226D
:1006FC00CC219A4801F06FF900223021974801F083
:10070C006AF9002000F068FD0346012B08D18C4BE0
:10071C0003221A608D4B1B681946002000F03CFD2B
:10072C000020FFF70DFD0346012B17D1844B062249
:10073C001A60FFF791FF8A4B1B68854A82FB0312F4
:10074C009210DB17D31A834A1360834BC8221A60AA
:10075C004FF4FA71002000F01FFD03E20120FFF7B7
:10076C00EFFC0346012B00F0FD810220FFF7E8FCB3
:10077C00F8E1754B1B68774A1360734B1B68764A1C
:10078C0013600122D421754801F025F9002228219B
:10079C00724801F020F9002000F01EFD0346012BE9
:1007AC0008D1674B04221A60664B1B68194600205F
:1007BC0000F0F2FC0020FFF7C3FC0346012B17D11D
:1007CC005F4B06221A60FFF747FF654B1B68604AB8
:1007DC0082FB03129210DB17D31A5E4A13605E4B36
:1007EC00C8221A604FF4FA71002000F0D5FCBBE16E
:1007FC000120FFF7A5FC0346012B00F0B581022078
:10080C00FFF79EFCB0E1504B1B68524A13604E4BF5
:10081C001A684E4B1B684E4981FB03018910DB178C
:10082C00CB1A13444C4A1360012278214B4801F037
:10083C00D2F800228421494801F0CDF8002000F0C4
:10084C00CBFC0346012B08D13D4B05221A603F4BD4
:10085C001B681946002000F09FFC0020FFF770FC7D
:10086C000346012B17D13E4B1B68394A82FB0312FE
:10087C009210DB17D31A374A1360374BC8221A6011
:10088C002F4B06221A60FFF7E7FE4FF4FA71002097
:10089C0000F082FC6AE10120FFF752FC0346012BB9
:1008AC0000F064810220FFF74BFC5FE1264B1B68D4
:1008BC00284A1360244B1B68274A13600122B82175
:1008CC00264801F088F800224421244801F083F8DE
:1008DC00002000F081FC0346012B08D1184B0222AA
:1008EC001A60184B1B681946002000F055FC0020BC
:1008FC00FFF726FC0346012B17D1194B1B68144A32
:10090C0082FB03129210DB17D31A124A1360124B9C
:10091C00C8221A600A4B06221A60FFF79DFE4FF49C
:10092C00FA71002000F038FC22E10120FFF708FCEE
:10093C000346012B00F01C810220FFF701FC17E19C
:10094C0080000020440000205804002040000020BB
:10095C00676666668400002088000020000801405D
:10096C003C000020002000F037FC0346012B08D18E
:10097C002421844801F047F84FF4FA71002000F06C
:10098C000BFC0120FFF7DCFB0346012B0DD17E4B4A
:10099C001B6842F2AB62934203DC7B4B1B686433F3
:1009AC0000E06423784A1360E4E00220FFF7C8FB00
:1009BC000346012B04D1744B1B68744A1360D9E0B5
:1009CC000020FFF7BDFB0346012B40F0D380704B9A
:1009DC0007221A60FFF740FE6E4B1B686E4A82FBC3
:1009EC0003129210DB17D31A674A13606B4B4FF448
:1009FC0096721A604FF4FA71002000F0CDFBB9E04A
:100A0C00002000F0E9FB0346012B08D148215D488A
:100A1C0000F0F9FF4FF4FA71002000F0BDFB01204B
:100A2C00FFF78EFB0346012B0DD1574B1B6842F28F
:100A3C00AB62934203DC544B1B68643300E06423C9
:100A4C00514A136098E00220FFF77AFB0346012B12
:100A5C0004D14D4B1B68524A13608DE00020FFF708
:100A6C006FFB0346012B40F08780494B08221A602C
:100A7C00FFF7F2FD4B4B1B68474A82FB03129210A7
:100A8C00DB17D31A404A1360444B4FF4C8721A60F8
:100A9C004FF4FA71002000F07FFB6DE0002000F0B5
:100AAC009BFB0346012B08D19021364800F0ABFF8D
:100ABC004FF4FA71002000F06FFB0120FFF740FBB0
:100ACC000346012B0DD1304B1B6842F2AB629342B3
:100ADC0003DC2D4B1B68643300E064232A4A13604B
:100AEC004CE00220FFF72CFB0346012B28D1264BB0
:100AFC001B682D4A13602C4B1A68294B1B681A442F
:100B0C00224B1B689A4239D1274B1A6813469B001B
:100B1C0013445B001A46234B1A60214B1A68134688
:100B2C009B0013445B001A461A4B1A60174B1A6849
:100B3C0013469B0013445B001A461C4B1A601DE0C5
:100B4C000020FFF7FDFA0346012B17D1104B0222B0
:100B5C001A60144B1B681946002000F01DFB0DE0B9
:100B6C0000BF0CE000BF0AE000BF08E000BF06E0D9
:100B7C0000BF04E000BF02E000BF00E000BF00BF08
:100B8C0080BD00BF000801408400002074000020DC
:100B9C008000002040000020676666668800002008
:100BAC0078000020440000207C0000203C00002045
:100BBC0080B500AFFFF700FDFFF762FD00BF80BD01
:100BCC0080B500AF094B1B681846FFF7B3FC074B09
:100BDC001B680133054A1360044B1B68012B02DDB3
:100BEC00024B00221A6000BF80BD00BF70000020C5
:100BFC0080B500AF00F0EEFB00F038F800F072F8B2
:100C0C0000F0BCF8114801F043FB114B01221A60B3
:100C1C00104B0A221A60104B0A221A600A22002179
:100C2C000E4800F039F90A2200210D4800F034F981
:100C3C000A2200210B4800F02FF964220A210A48ED
:100C4C0000F02AF900F058FAFCE700BFF000002091
:100C5C008000002084000020880000201912000869
:100C6C0081010008BD0B0008CD0B000880B590B0C9
:100C7C0000AF07F1180328220021184601F0B8FE36
:100C8C003B1D00221A605A609A60DA601A610223D6
:100C9C00BB610123BB621023FB6200237B6307F162
:100CAC001803184600F0C8FE0346002B01D000F0D4
:100CBC00EDF80F237B600023BB600023FB60002357
:100CCC003B6100237B613B1D0021184601F034F988
:100CDC000346002B01D000F0D9F800BF4037BD46C9
:100CEC0080BD000080B586B000AF07F1080300227C
:100CFC001A605A609A60DA603B4600221A605A60A9
:100D0C001D4B4FF080421A601B4B41F63F725A60EC
:100D1C00194B00229A60184B0922DA60164B0022FC
:100D2C001A61154B00229A61134801F061FA0346CF
:100D3C00002B01D000F0AAF84FF48053BB6007F1F0
:100D4C00080319460C4801F0DFFB0346002B01D0C9
:100D5C0000F09CF800233B6000237B603B46194667
:100D6C00054801F0B7FD0346002B01D000F08EF8CA
:100D7C0000BF1837BD4680BDF000002080B588B09C
:100D8C0000AF07F1100300221A605A609A60DA6013
:100D9C00354B9B69344A43F010039361324B9B698A
:100DAC0003F01003FB60FB682F4B9B692E4A43F04A
:100DBC00040393612C4B9B6903F00403BB60BB6879
:100DCC00294B9B69284A43F008039361264B9B6986
:100DDC0003F008037B607B6800224FF47F7123488B
:100DEC0000F0F9FD002243F6FF71214800F0F3FDFD
:100DFC004FF400533B6100237B610123BB6107F17E
:100E0C00100319461B4800F055FC4FF47F733B61EF
:100E1C0001237B610023BB610223FB6107F11003FB
:100E2C001946124800F046FC43F6FF733B61012360
:100E3C007B610023BB610223FB6107F110031946A0
:100E4C000B4800F037FC4FF440433B6100237B61BF
:100E5C000123BB6107F110031946054800F02AFC79
:100E6C0000BF2037BD4680BD001002400008014085
:100E7C00000C01400010014080B582B000AF7860DA
:100E8C0000F0DAF800BF0837BD4680BD80B400AF73
:100E9C0072B600BFFEE7000080B485B000AFF8600A
:100EAC00B9607A60294B1B78272B4AD8274B1B78C3
:100EBC001946274A0B469B000B449B001344FA68C7
:100ECC001A60224B1B781846BB68224AA2FB0323EC
:100EDC00DA081F4903469B0003449B000B44043370
:100EEC001A601A4B1B7818467B681A4AA2FB03231C
:100EFC00DA08174903469B0003449B000B44083354
:100F0C001A60124B1B781946114A0B469B000B4476
:100F1C009B0013440C3300221A700C4B1A780B4BA9
:100F2C001B78194610460A4A0B469B000B449B0043
:100F3C00134410331860054B1B780133DAB2034BA2
:100F4C001A7000BF1437BD4680BC70478C0000205F
:100F5C0038010020CDCCCCCC80B485B000AF78600B
:100F6C00334B1B781A467B6893425CD27B68FB60E0
:100F7C004DE0FB685A1C2F4913469B0013449B0001
:100F8C000B4419682B48FA6813469B0013449B00CA
:100F9C0003441960FB685A1C264913469B001344F2
:100FAC009B000B44043319682248FA6813469B00D3
:100FBC0013449B00034404331960FB685A1C1D49FD
:100FCC0013469B0013449B000B44083319681948C3
:100FDC00FA6813469B0013449B00034408331960C2
:100FEC00FB685A1C134913469B0013449B000B448B
:100FFC000C3318780F49FA6813469B0013449B0076
:10100C000B440C3302461A70FB680133FB60084B2F
:10101C001B78013BFA689A42ABDB054B1B78013B12
:10102C00DAB2034B1A7000BF1437BD4680BC704750
:10103C008C0000203801002080B483B000AF002366
:10104C007B6048E02A497A6813469B0013449B0056
:10105C000B4404331B68002B13D025497A681346C4
:10106C009B0013449B000B4404331B68591E2048FF
:10107C007A6813469B0013449B00034404331960A5
:10108C0026E01B497A6813469B0013449B000B44D3
:10109C000833196816487A6813469B0013449B0062
:1010AC0003440433196012497A6813469B001344B5
:1010BC009B000B440C331B780133D8B20C497A6873
:1010CC0013469B0013449B000B440C3302461A70CE
:1010DC007B6801337B60074B1B781A467B68934215
:1010EC00B0DB00BF00BF0C37BD4680BC704700BFF3
:1010FC00380100208C00002080B582B000AF0023A6
:10110C007B603AE022497A6813469B0013449B00AB
:10111C000B440C331B78002B2CD01D497A681346DA
:10112C009B0013449B000B440C331B78013BD8B23F
:10113C0017497A6813469B0013449B000B440C33ED
:10114C0002461A7012497A6813469B0013449B009E
:10115C000B441B6898470E497A6813469B0013444E
:10116C009B000B4408331B68002B03D17B6818468B
:10117C00FFF7F2FE7B6801337B60064B1B781A4647
:10118C007B689342BEDB00BF00BF0837BD4680BD05
:10119C00380100208C00002080B483B000AF786050
:1011AC0039603B68094A82FB03129210DB17D21A92
:1011BC0007497B6841F82320064A7B68002142F8E6
:1011CC00231000BF0C37BD4680BC7047676666664F
:1011DC00580400208404002080B483B000AF7860F1
:1011EC00094A7B6852F82330012B06D1064A7B68EA
:1011FC00002142F82310012300E0002318460C378D
:10120C00BD4680BC704700BF8404002080B483B00E
:10121C0000AF00237B601CE0124A7B6852F823303D
:10122C00002B13DD0F4A7B6852F823305A1E0D49F0
:10123C007B6841F823200B4A7B6852F82330002B43
:10124C0004DC094A7B68012142F823107B680133D6
:10125C007B607B680A2BDFDD00BF00BF0C37BD460F
:10126C0080BC7047580400208404002080B485B0F2
:10127C0000AF154B9B69144A43F001039361124B69
:10128C009B6903F00103BB60BB680F4BDB690E4A23
:10129C0043F08053D3610C4BDB6903F080537B60CC
:1012AC007B680A4B5B68FB60FB6823F0E063FB60C8
:1012BC00FB6843F08063FB60044AFB68536000BF2B
:1012CC001437BD4680BC704700100240000001403E
:1012DC0080B584B000AF78607B681B68B3F1804F39
:1012EC0013D10C4BDB690B4A43F00103D361094B5F
:1012FC00DB6903F00103FB60FB68002200211C206A
:10130C0000F0A1F91C2000F0BAF900BF1037BD465F
:10131C0080BD00BF0010024080B400AFFEE780B477
:10132C0000AFFEE780B400AFFEE780B400AFFEE78D
:10133C0080B400AFFEE780B400AF00BFBD4680BCF8
:10134C00704780B400AF00BFBD4680BC704780B40E
:10135C0000AF00BFBD4680BC704780B500AF00F049
:10136C007FF800BF80BD000080B500AF024800F0E0
:10137C00DBFF00BF80BD00BFF000002080B400AFD9
:10138C0000BFBD4680BC7047FFF7F8FF0B480C4907
:10139C000C4A002302E0D458C4500433C4188C42C5
:1013AC00F9D3094A094C002301E013600432A2422C
:1013BC00FBD301F0F9FAFFF71BFC7047000000208B
:1013CC0054000020502A000854000020B4040020CF
:1013DC00FEE7000080B500AF084B1B68074A43F0DE
:1013EC0010031360032000F023F90F2000F008F81D
:1013FC00FFF73CFF0023184680BD00BF00200240D1
:10140C0080B582B000AF7860124B1A68124B1B7813
:10141C0019464FF47A73B3FBF1F3B2FBF3F31846AE
:10142C0000F03BF90346002B01D001230EE07B6852
:10143C000F2B0AD8002279684FF0FF3000F003F927
:10144C00064A7B681360002300E001231846083726
:10145C00BD4680BD48000020500000204C000020FC
:10146C0080B400AF054B1B781A46054B1B68134420
:10147C00034A136000BFBD4680BC7047500000207B
:10148C00B004002080B400AF024B1B681846BD4668
:10149C0080BC7047B004002080B485B000AF786089
:1014AC007B6803F00703FB600C4BDB68BB60BA681E
:1014BC004FF6FF031340BB60FB681A02BB68134373
:1014CC0043F0BF6343F40033BB60044ABB68D36092
:1014DC0000BF1437BD4680BC704700BF00ED00E074
:1014EC0080B400AF044BDB681B0A03F007031846FB
:1014FC00BD4680BC704700BF00ED00E080B483B0F7
:10150C0000AF0346FB7197F90730002B0BDBFB791F
:10151C0003F01F02064997F907305B09012000FA16
:10152C0002F241F8232000BF0C37BD4680BC704747
:10153C0000E100E080B483B000AF03463960FB717A
:10154C0097F90730002B0ADB3B68DAB20C4997F9A4
:10155C0007301201D2B20B4483F800230AE03B6837
:10156C00DAB20849FB7903F00F03043B1201D2B243
:10157C000B441A7600BF0C37BD4680BC704700BFC9
:10158C0000E100E000ED00E080B489B000AFF8604D
:10159C00B9607A60FB6803F00703FB61FB69C3F178
:1015AC000703042B28BF0423BB61FB690433062B00
:1015BC0002D9FB69033B00E000237B614FF0FF3253
:1015CC00BB6902FA03F3DA43BB681A407B699A40A1
:1015DC004FF0FF317B6901FA03F3D9437B680B4071
:1015EC00134318462437BD4680BC704780B582B083
:1015FC0000AF78607B68013BB3F1807F01D301239E
:10160C000FE00A4A7B68013B53600F214FF0FF301B
:10161C00FFF790FF054B00229A60044B07221A60DB
:10162C00002318460837BD4680BD00BF10E000E01F
:10163C0080B582B000AF78607868FFF72DFF00BFEF
:10164C000837BD4680BD80B586B000AF0346B96093
:10165C007A60FB7300237B61FFF742FF78617A6845
:10166C00B9687869FFF790FF024697F90F30114679
:10167C001846FFF75FFF00BF1837BD4680BD80B529
:10168C0082B000AF0346FB7197F907301846FFF79D
:10169C0035FF00BF0837BD4680BD80B582B000AFB6
:1016AC0078607868FFF7A2FF034618460837BD46F6
:1016BC0080BD000080B48BB000AF7860396000232F
:1016CC007B6200233B6248E101227B6A02FA03F34E
:1016DC00FB613B681B68FA691340BB61BA69FB6923
:1016EC009A4240F037813B685B68A34A93425ED0D4
:1016FC00A14A934275D8A14A934258D09F4A93422B
:10170C006FD89F4A934252D09D4A934269D89D4AC2
:10171C0093424CD09B4A934263D89B4A934246D007
:10172C00994A93425DD8122B2AD8122B59D801A270
:10173C0052F823F0BB17000895170008A7170008EC
:10174C00E9170008EF170008EF170008EF1700085B
:10175C00EF170008EF170008EF170008EF17000845
:10176C00EF170008EF170008EF170008EF17000835
:10177C00EF170008EF1700089D170008B1170008B5
:10178C00824A934213D02CE03B68DB683B6229E031
:10179C003B68DB6804333B6224E03B68DB6808335E
:1017AC003B621FE03B68DB680C333B621AE03B6832
:1017BC009B68002B02D104233B6213E03B689B68BF
:1017CC00012B05D108233B627B68FA691A6109E099
:1017DC0008233B627B68FA695A6103E000233B6291
:1017EC0000E000BFBB69FF2B01D87B6801E07B6880
:1017FC0004337B61BB69FF2B02D87B6A9B0002E040
:10180C007B6A083B9B003B617B691A680F213B6933
:10181C0001FA03F3DB431A40396A3B6901FA03F31B
:10182C001A437B691A603B685B6803F08053002B9A
:10183C0000F09080564B9B69554A43F0010393612D
:10184C00534B9B6903F00103BB60BB68514A7B6A35
:10185C009B08023352F82330FB607B6A03F00303CE
:10186C009B000F2202FA03F3DB43FA681340FB6080
:10187C007B68494A93420DD07B68484A934207D013
:10188C007B68474A934201D1022304E0032302E020
:10189C00012300E000237A6A02F0030292009340D5
:1018AC00FA681343FB603B497B6A9B080233FA6876
:1018BC0041F823203B685B6803F48013002B06D0AF
:1018CC00384B9A683749BB6913438B6006E0354B3C
:1018DC009A68BB69DB43334913408B603B685B6898
:1018EC0003F40013002B06D02E4BDA682D49BB698C
:1018FC001343CB6006E02B4BDA68BB69DB43294909
:10190C001340CB603B685B6803F40033002B06D0BC
:10191C00244B5A682349BB6913434B6006E0214BA7
:10192C005A68BB69DB431F4913404B603B685B68DB
:10193C0003F48033002B06D01A4B1A681949BB6983
:10194C0013430B6006E0174B1A68BB69DB43154960
:10195C0013400B607B6A01337B623B681A687B6ABD
:10196C0022FA03F3002B7FF4AFAE00BF00BF2C377D
:10197C00BD4680BC704700BF000032100000311023
:10198C0000002210000021100000121000001110A5
:10199C00001002400000014000080140000C014012
:1019AC00001001400004014080B485B000AF7860A5
:1019BC000B467B807B689A687B881340002B02D097
:1019CC000123FB7301E00023FB73FB7B18461437E8
:1019DC00BD4680BC704780B483B000AF78600B46C6
:1019EC007B8013467B707B78002B03D07A887B68D6
:1019FC001A6103E07B881A047B681A6100BF0C37FC
:101A0C00BD4680BC704780B485B000AF78600B4693
:101A1C007B807B68DB68FB607A88FB6813401A0468
:101A2C00FB68D9437B880B401A437B681A6100BF63
:101A3C001437BD4680BC704780B586B000AF786067
:101A4C007B68002B01D101236CE27B681B6803F0DF
:101A5C000103002B00F08780924B5B6803F00C03B2
:101A6C00042B0CD08F4B5B6803F00C03082B12D1AA
:101A7C008C4B5B6803F48033B3F5803F0BD1894BFF
:101A8C001B6803F40033002B6CD07B685B68002B65
:101A9C0068D1012346E27B685B68B3F5803F06D1D1
:101AAC00804B1B687F4A43F4803313602EE07B68C5
:101ABC005B68002B0CD17B4B1B687A4A23F4803378
:101ACC001360784B1B68774A23F4802313601DE066
:101ADC007B685B68B3F5A02F0CD1724B1B68714A05
:101AEC0043F4802313606F4B1B686E4A43F48033BE
:101AFC0013600BE06B4B1B686A4A23F48033136052
:101B0C00684B1B68674A23F4802313607B685B680F
:101B1C00002B13D0FFF7B6FC386108E0FFF7B2FCDE
:101B2C0002463B69D31A642B01D90323FAE15D4BBE
:101B3C001B6803F40033002BF0D014E0FFF7A2FC79
:101B4C00386108E0FFF79EFC02463B69D31A642B10
:101B5C0001D90323E6E1534B1B6803F40033002B3C
:101B6C00F0D100E000BF7B681B6803F00203002B80
:101B7C0063D04C4B5B6803F00C03002B0BD0494B30
:101B8C005B6803F00C03082B1CD1464B5B6803F419
:101B9C008033002B16D1434B1B6803F00203002B40
:101BAC0005D07B681B69012B01D00123BAE13D4BA9
:101BBC001B6823F0F8027B685B69DB00394913432F
:101BCC000B603AE07B681B69002B20D0364B01225E
:101BDC001A60FFF757FC386108E0FFF753FC024628
:101BEC003B69D31A022B01D903239BE12D4B1B68B4
:101BFC0003F00203002BF0D02A4B1B6823F0F802F1
:101C0C007B685B69DB00274913430B6015E0264BAF
:101C1C0000221A60FFF736FC386108E0FFF732FC4F
:101C2C0002463B69D31A022B01D903237AE11D4BDF
:101C3C001B6803F00203002BF0D17B681B6803F0D8
:101C4C000803002B3AD07B689B69002B19D0174BEB
:101C5C0001221A60FFF716FC386108E0FFF712FC4E
:101C6C0002463B69D31A022B01D903235AE10D4BCF
:101C7C005B6A03F00203002BF0D0012000F09AFA0B
:101C8C001CE00A4B00221A60FFF7FCFB38610FE0E6
:101C9C00FFF7F8FB02463B69D31A022B08D9032342
:101CAC0040E100BF0010024000004242800442426A
:101CBC009E4B5B6A03F00203002BE9D17B681B6827
:101CCC0003F00403002B00F0A6800023FB75974B58
:101CDC00DB6903F08053002B0DD1944BDB69934AE5
:101CEC0043F08053D361914BDB6903F08053BB60AD
:101CFC00BB680123FB758E4B1B6803F48073002BB0
:101D0C0018D18B4B1B688A4A43F480731360FFF71E
:101D1C00B9FB386108E0FFF7B5FB02463B69D31A03
:101D2C00642B01D90323FDE0814B1B6803F4807302
:101D3C00002BF0D07B68DB68012B06D17B4B1B6A38
:101D4C007A4A43F0010313622DE07B68DB68002BB9
:101D5C000CD1764B1B6A754A23F001031362734B4B
:101D6C001B6A724A23F0040313621CE07B68DB6875
:101D7C00052B0CD16D4B1B6A6C4A43F004031362A8
:101D8C006A4B1B6A694A43F0010313620BE0674B11
:101D9C001B6A664A23F001031362644B1B6A634A95
:101DAC0023F0040313627B68DB68002B15D0FFF76C
:101DBC0069FB38610AE0FFF765FB02463B69D31A01
:101DCC0041F28832934201D90323ABE0574B1B6A93
:101DDC0003F00203002BEED014E0FFF753FB386145
:101DEC000AE0FFF74FFB02463B69D31A41F28832F7
:101DFC00934201D9032395E04C4B1B6A03F0020379
:101E0C00002BEED1FB7D012B05D1484BDB69474AFA
:101E1C0023F08053D3617B68DB69002B00F0818059
:101E2C00424B5B6803F00C03082B61D07B68DB69C9
:101E3C00022B46D13F4B00221A60FFF723FB38617F
:101E4C0008E0FFF71FFB02463B69D31A022B01D9AE
:101E5C00032367E0354B1B6803F00073002BF0D1B4
:101E6C007B681B6AB3F5803F08D1304B5B6823F469
:101E7C0000327B689B682D4913434B602B4B5B688E
:101E8C0023F474127B68196A7B685B6A0B432749DD
:101E9C0013434B60274B01221A60FFF7F3FA3861AA
:101EAC0008E0FFF7EFFA02463B69D31A022B01D97F
:101EBC00032337E01D4B1B6803F00073002BF0D09D
:101ECC002FE01C4B00221A60FFF7DCFA386108E0A7
:101EDC00FFF7D8FA02463B69D31A022B01D9032328
:101EEC0020E0124B1B6803F00073002BF0D118E0BC
:101EFC007B68DB69012B01D1012313E00B4B5B6881
:101F0C00FB60FB6803F480327B681B6A9A4206D143
:101F1C00FB6803F470127B685B6A9A4201D0012360
:101F2C0000E0002318461837BD4680BD0010024063
:101F3C00007000406000424280B584B000AF786011
:101F4C0039607B68002B01D10123D0E06A4B1B6800
:101F5C0003F007033A689A4210D9674B1B6823F0C9
:101F6C00070265493B6813430B60634B1B6803F026
:101F7C0007033A689A4201D00123B8E07B681B68DA
:101F8C0003F00203002B20D07B681B6803F00403D2
:101F9C00002B05D0594B5B68584A43F4E0635360FF
:101FAC007B681B6803F00803002B05D0534B5B6860
:101FBC00524A43F460535360504B5B6823F0F00279
:101FCC007B689B684D4913434B607B681B6803F02F
:101FDC000103002B40D07B685B68012B07D1474B7A
:101FEC001B6803F40033002B15D101237FE07B68C1
:101FFC005B68022B07D1414B1B6803F00073002B6D
:10200C0009D1012373E03D4B1B6803F00203002B45
:10201C0001D101236BE0394B5B6823F003027B6831
:10202C005B68364913434B60FFF72CFAF8600AE003
:10203C00FFF728FA0246FB68D31A41F28832934222
:10204C0001D9032353E02D4B5B6803F00C027B6832
:10205C005B689B009A42EBD1274B1B6803F007038C
:10206C003A689A4210D2244B1B6823F0070222498B
:10207C003B6813430B60204B1B6803F007033A6863
:10208C009A4201D0012332E07B681B6803F0040301
:10209C00002B08D0194B5B6823F4E0627B68DB688B
:1020AC00164913434B607B681B6803F00803002B35
:1020BC0009D0124B5B6823F460527B681B69DB0010
:1020CC000E4913434B6000F021F802460B4B5B6842
:1020DC001B0903F00F030A49CB5C22FA03F3094AEC
:1020EC001360094B1B681846FFF78AF90023184642
:1020FC001037BD4680BD00BF0020024000100240DA
:10210C00242A0008480000204C00002080B487B02E
:10211C0000AF0023FB600023BB6000237B61002326
:10212C007B6000233B611E4B5B68FB60FB6803F02C
:10213C000C03042B02D0082B03D027E0194B3B6176
:10214C0027E0FB689B0C03F00F03174AD35C7B6002
:10215C00FB6803F48033002B10D0114B5B685B0CD5
:10216C0003F00103114AD35CBB607B680D4A02FB90
:10217C0003F2BB68B2FBF3F37B6104E07B680C4AAF
:10218C0002FB03F37B617B693B6102E0054B3B6126
:10219C0000BF3B6918461C37BD4680BC704700BF6A
:1021AC000010024000127A00342A0008442A000869
:1021BC0000093D0080B485B000AF78600A4B1B6805
:1021CC000A4AA2FB03235B0A7A6802FB03F3FB6057
:1021DC0000BFFB685A1EFA60002BF9D100BF00BF8C
:1021EC001437BD4680BC704748000020D34D6210A8
:1021FC0080B582B000AF78607B68002B01D10123E1
:10220C0041E07B6893F83D30DBB2002B06D17B6854
:10221C00002283F83C207868FFF75AF87B6802228A
:10222C0083F83D207B681A687B6804331946104696
:10223C0000F056FA7B68012283F846207B68012265
:10224C0083F83E207B68012283F83F207B680122C3
:10225C0083F840207B68012283F841207B680122AF
:10226C0083F842207B68012283F843207B6801229B
:10227C0083F844207B68012283F845207B68012287
:10228C0083F83D20002318460837BD4680BD00006A
:10229C0080B485B000AF78607B6893F83D30DBB2DA
:1022AC00012B01D0012335E07B68022283F83D200D
:1022BC007B681B68DA687B681B6842F00102DA6095
:1022CC007B681B68164A934209D07B681B68B3F184
:1022DC00804F04D07B681B68124A934211D17B68F3
:1022EC001B689B6803F00703FB60FB68062B10D090
:1022FC007B681B681A687B681B6842F001021A60D5
:10230C0007E07B681B681A687B681B6842F0010257
:10231C001A60002318461437BD4680BC704700BFB6
:10232C00002C01400004004080B584B000AF786000
:10233C007B681B68DB68FB607B681B681B69BB6088
:10234C00BB6803F00203002B20D0FB6803F00203F0
:10235C00002B1BD07B681B686FF002021A617B6834
:10236C0001221A777B681B689B6903F00303002B1F
:10237C0003D0786800F098F905E0786800F08BF9E4
:10238C00786800F09AF97B6800221A77BB6803F032
:10239C000403002B20D0FB6803F00403002B1BD09C
:1023AC007B681B686FF004021A617B6802221A7743
:1023BC007B681B689B6903F44073002B03D078681F
:1023CC0000F072F905E0786800F065F9786800F0C3
:1023DC0074F97B6800221A77BB6803F00803002BA2
:1023EC0020D0FB6803F00803002B1BD07B681B6814
:1023FC006FF008021A617B6804221A777B681B68ED
:10240C00DB6903F00303002B03D0786800F04CF970
:10241C0005E0786800F03FF9786800F04EF97B68C9
:10242C0000221A77BB6803F01003002B20D0FB6846
:10243C0003F01003002B1BD07B681B686FF010029D
:10244C001A617B6808221A777B681B68DB6903F4C6
:10245C004073002B03D0786800F026F905E078680B
:10246C0000F019F9786800F028F97B6800221A77D7
:10247C00BB6803F00103002B0CD0FB6803F00103D5
:10248C00002B07D07B681B686FF001021A6178681B
:10249C00FEF7F2FCBB6803F08003002B0CD0FB684A
:1024AC0003F08003002B07D07B681B686FF0800261
:1024BC001A61786800F06FFABB6803F04003002BD8
:1024CC000CD0FB6803F04003002B07D07B681B6823
:1024DC006FF040021A61786800F0F8F8BB6803F0FE
:1024EC002003002B0CD0FB6803F02003002B07D03B
:1024FC007B681B686FF020021A61786800F042FA62
:10250C0000BF1037BD4680BD80B584B000AF786089
:10251C0039600023FB737B6893F83C30012B01D1AD
:10252C000223B4E07B68012283F83C207B68022202
:10253C0083F83D207B681B689B68BB60BB6823F0FD
:10254C007703BB60BB6823F47F43BB607B681B686D
:10255C00BA689A603B681B68B3F5005F3ED0B3F570
:10256C00005F00F28780B3F5805F00F08680B3F5E2
:10257C00805F7FD8702B1AD0702B7BD8602B50D0FB
:10258C00602B77D8502B3CD0502B73D8402B58D085
:10259C00402B6FD8302B64D0302B6BD8202B60D0D5
:1025AC00202B67D8002B5CD0102B5AD062E07B68B4
:1025BC0018683B6899683B685A683B68DB6800F0B0
:1025CC006AF97B681B689B68BB60BB6843F0770348
:1025DC00BB607B681B68BA689A604FE07B681868C0
:1025EC003B6899683B685A683B68DB6800F053F9B4
:1025FC007B681B689A687B681B6842F480429A600F
:10260C003CE07B6818683B6859683B68DB681A4695
:10261C0000F0CAF87B681B685021184600F021F9BD
:10262C002CE07B6818683B6859683B68DB681A4685
:10263C0000F0E8F87B681B686021184600F011F97F
:10264C001CE07B6818683B6859683B68DB681A4675
:10265C0000F0AAF87B681B684021184600F001F9CD
:10266C000CE07B681A683B681B681946104600F042
:10267C00F8F803E00123FB7300E000BF7B68012244
:10268C0083F83D207B68002283F83C20FB7B1846B6
:10269C001037BD4680BD80B483B000AF786000BFFA
:1026AC000C37BD4680BC704780B483B000AF7860F7
:1026BC0000BF0C37BD4680BC704780B483B000AF00
:1026CC00786000BF0C37BD4680BC704780B483B0C7
:1026DC0000AF786000BF0C37BD4680BC704700006F
:1026EC0080B485B000AF786039607B681B68FB6094
:1026FC007B682B4A934207D07B68B3F1804F03D0A1
:10270C007B68284A934208D1FB6823F07003FB6076
:10271C003B685B68FA681343FB607B68204A934212
:10272C0007D07B68B3F1804F03D07B681D4A93427E
:10273C0008D1FB6823F44073FB603B68DB68FA68E4
:10274C001343FB60FB6823F080023B685B69134317
:10275C00FB607B68FA681A603B689A687B68DA628F
:10276C003B681A687B689A627B680D4A934203D176
:10277C003B681A697B681A637B6801225A617B6823
:10278C001B6903F00103002B05D07B681B6923F048
:10279C0001027B681A6100BF1437BD4680BC7047CC
:1027AC00002C01400004004080B487B000AFF860FA
:1027BC00B9607A60FB681B6A7B61FB681B6A23F05B
:1027CC000102FB681A62FB689B693B613B6923F061
:1027DC00F0033B617B681B013A6913433B617B69E6
:1027EC0023F00A037B617A69BB6813437B61FB6846
:1027FC003A699A61FB687A691A6200BF1C37BD4658
:10280C0080BC704780B487B000AFF860B9607A6064
:10281C00FB681B6A7B61FB681B6A23F01002FB6878
:10282C001A62FB689B693B613B6923F470433B6113
:10283C007B681B033A6913433B617B6923F0A0035C
:10284C007B61BB681B017A6913437B61FB683A6946
:10285C009A61FB687A691A6200BF1C37BD4680BC5E
:10286C00704780B485B000AF786039607B689B6836
:10287C00FB60FB6823F07003FB603A68FB68134352
:10288C0043F00703FB607B68FA689A6000BF14375B
:10289C00BD4680BC704780B487B000AFF860B960AB
:1028AC007A603B60FB689B687B617B6923F47F43A8
:1028BC007B613B681A027B681A43BB6813437A69D5
:1028CC0013437B61FB687A699A6000BF1C37BD4675
:1028DC0080BC704780B485B000AF786039607B688D
:1028EC0093F83C30012B01D1022341E07B6801229B
:1028FC0083F83C207B68022283F83D207B681B68B0
:10290C005B68FB607B681B689B68BB60FB6823F0A3
:10291C007003FB603B681B68FA681343FB607B68C1
:10292C001B68FA685A607B681B68144A934209D08A
:10293C007B681B68B3F1804F04D07B681B68104A1E
:10294C0093420CD1BB6823F08003BB603B685B688F
:10295C00BA681343BB607B681B68BA689A607B6873
:10296C00012283F83D207B68002283F83C20002361
:10297C0018461437BD4680BC704700BF002C014080
:10298C000004004080B483B000AF786000BF0C3707
:10299C00BD4680BC704780B483B000AF786000BF88
:1029AC000C37BD4680BC704770B500260C4D0D4CE5
:1029BC00641BA410A64209D100F022F800260A4D8F
:1029CC000A4C641BA410A64205D170BD55F8043BFB
:1029DC0098470136EEE755F8043B98470136F2E785
:1029EC00482A0008482A0008482A00084C2A0008EF
:1029FC0003460244934200D1704703F8011BF9E7E8
:102A0C00F8B500BFF8BC08BC9E467047F8B500BFCF
:082A1C00F8BC08BC9E4670479F
:102A2400000000000000000001020304060708097A
:102A340002030405060708090A0B0C0D0E0F1010FB
:042A4400010200008B
:042A48003101000850
:042A4C000D01000870
:102A50000100000000000000000000000100000074
:102A60000000000000000000010000000000000065
:102A70000000000001000000000000000000000055
:102A8000640000006400000064000000881300007F
:102A9000D0070000B80B000000127A001000000000
:042AA0000100000031
:040000050800139547
:00000001FF
